:100B5400CFE9CF9001A8EAF0A3EFF0120F2C900197
:100B6400A8E0FEA3E04E605A90002BE0FF9001A89D
:100B7400E0FCA3E02FF582E43CF583E493FE601DE2
:100B8400EFC3940F501790002BE0242FF582E43428
:100B940000F583EEF090002BE004F080CB90002B66
:100BA400E004F0242EF582E43400F583740AF09016
:100BB400002E7423F090002BE0A3F0E490002BF0BF
:020BC400D299C4
:010BC600220C
:10002600120F2C90002BE0FF2403F582E43400F538
:1000360083E0FE640A601DEFC39410501790002BF6
:10004600E0242EF582E43400F583EEF090002BE0F8
:1000560004F080CF90002BE0242EF582E43400F5E6
:1000660083740AF090002E7423F090002BE004A312
:09007600F0E490002BF0D2992275
:100C8700120F2CE4FF74032FF582E43400F583E0A0
:100C9700FE742E2FF582E43400F583EEF0742E2FC8
:100CA700F582E43400F583E0640A60050FEFB410C1
:100CB700D4742E2FF582E43400F583740AF0900083
:100CC7002E7423F0EF0490002CF0E490002BF0D268
:010CD7009983
:010CD80022F9
:100D2800900027E0FDC394305030900029E0FEED9C
:100D380025E0245CF582E43400F583EEF0A3E4F0CA
:100D480090002AE0FFED25E0245CF582E43400F50C
:0B0D580083E48FF0120CD9120729224F
:070D6300900027EFF07F076D
:100D6A009001A3EFF0E02403F582E43400F583E078
:100D7A00FF120F7DEFC454F0FEEEC0E09001A3E035
:100D8A002404F582E43400F583E0FF120F7DD0E0FD
:030D9A002FFF2206
:100C2F009001A0F090005AE0FCA3E0FDEC9001A130
:0E0C3F00F0A3EDF0120F2C90019FE0FD7F015D
:050C4D009001A3EFF08F
:100C5200CFEDCF120DD79001A4EEF0A3EFF09001EB
:100C6200A4E0FF9001A3E0FE242EF582E43400F517
:100C720083EFF09001A5E0FF742F2EF582E434009B
:040C8200F583EFF017
:010C8600224B
:100F7D00EFC39430400CEFD394395006C3EF943047
:100F8D00FF22EFC39441400BEFD394465005EF245D
:060F9D00C9FF227FFF22C4
:10100800EFC3940A500674302FFF800474372FFF03
:0110180022B5
:100E43009001AAEEF0A3EFF0E4FF9001AAE0FEA365
:100E5300E0FDCFEECF120F7DCEEFCECFEDCF120F51
:100E63007DCDEFCDEF2404FFEEC8EFC8088002C3A9
:040E730033D8FCFF75
:010E77002258
:100DD700EF540FFEEF54F0FFC4540FFDE49001A64B
:100DE700F0A3F0CFEECF121008CEEFCECFEDCF129B
:100DF70010089001A6EFF0CFEECFA3EFF09001A679
:050E0700E0FEA3E0FF86
:010E0C0022C3
:100F0300E4900000F0900000E0FFC39410501474CC
:100F1300032FF582E43400F583E4F0900000E0044D
:090F2300F080E2E4900000F022ED
:100F2C00E490002BF090002BE0FFC394105014744D
:100F3C002E2FF582E43400F583E4F090002BE004CE
:090F4C00F080E2E490002BF02299
:100E0D00CEEACECFE9CF8F828E83E4F08F828E83B0
:100E1D00E0FDC394105018A3A3A3E5822DF582E441
:100E2D003583F583E4F08F828E83E004F080DD8FCF
:050E3D00828E83E4F049
:010E4200228D
:100E7800A2AF9202C2AF8E088F0943B601438F0317
:100E8800300103438F04850982850883E4F030012B
:0E0E980003538FFB538FFC53B6FEA20292AFA2
:010EA6002229
:100EA700A2AF9202C2AF8E088F0943B601438F01EA
:100EB700300103438F04850982850883EDF03001F3
:0E0EC70003538FFB538FFE53B6FEA20292AF71
:010ED50022FA
:100FA300A2AF9204C2AF8E0A8F0B300303438F04A8
:100FB300850B82850A83E493FF300303538FFBA2DF
:030FC3000492AFE6
:010FC6002208
:100FC700D201E4FFFE120E78E4FCECFF7E00241C45
:100FD700F582E43401F583E0FDD201120EA70CEC93
:030FE700B480E7EC
:010FEA0022E4
:100FEB00E4FDEDFF7E00D203120FA3741C2DF582DE
:0C0FFB00E43401F583EFF00DEDB480E666
:0110070022C6
:100BC700EFC39400405DEFD394075057EFB408008C
:100BD7005051900BE0F8282873020BF8020BF8022B
:100BE7000C05020C05020C12020C12020C1F020C5F
:100BF7001FED700553BAFE802A43BA018025ED70B8
:100C07000553BAFD801D43BA028018ED700553BA2B
:100C1700FB801043BA04800BED700553BAF78003CD
:070C270043BA087F05DFFE60
:010C2E0022A3
:08072900CFEDCF900028E0FDA8
:10073100EFC39430400302082BEFC39400401FEF36
:10074100D3940750197401C8EFC8088002C333D885
:10075100FCFEED6005EEF4528422EE428422EFC3EA
:1007610094084023EFD3940F501DEF24F8FE740139
:10077100C8EEC8088002C333D8FCFEED6005EEF474
:10078100528522EE428522EFC394104023EFD39489
:1007910017501DEF24F0FE7401C8EEC8088002C393
:1007A10033D8FCFEED6005EEF452B022EE42B022E9
:1007B100EFC394184023EFD3941F501DEF24E8FE9C
:1007C1007401C8EEC8088002C333D8FCFEED600591
:1007D100EEF452A022EE42A022EFC394204023EF78
:1007E100D39427501DEF24E0FE7401C8EEC80880A1
:1007F10002C333D8FCFEED6005EEF4528622EE42D0
:100801008622EFC394284022EFD3942F501CEF246B
:10081100D8FF7401C8EFC8088002C333D8FCFEEDCD
:0A0821006005EEF4529622EE4296B6
:01082B0022AA
:080F55009001A3ECF0A3EDF004
:100F5D00E0FE9001A3E0540FFDEF14600804700F44
:0F0F6D008ED28DD322CFEECF8FD5CFEDCF8FD6B3
:010F7C002252
:10061A00EFC394304003020727EFC394004022EF50
:10062A00D39407501C7401C8EFC8088002C333D89A
:10063A00FCFEE4F5847584FFE5845E6002D322C380
:10064A0022EFC394084026EFD3940F5020EF24F8EA
:10065A00FE7401C8EEC8088002C333D8FCFEE4F574
:10066A00857585FFE5855E6002D322C322EFC394B8
:10067A00104026EFD394175020EF24F0FE7401C8DF
:10068A00EEC8088002C333D8FCFEE4F5B075B0FFAB
:10069A00E5B05E6002D322C322EFC394184026EF6E
:1006AA00D3941F5020EF24E8FE7401C8EEC80880D6
:1006BA0002C333D8FCFEE4F5A075A0FFE5A05E6096
:1006CA0002D322C322EFC394204026EFD3942750AB
:1006DA0020EF24E0FE7401C8EEC8088002C333D8B4
:1006EA00FCFEE4F5867586FFE5865E6002D322C3CA
:1006FA0022EFC394284026EFD3942F5020EF24D81A
:10070A00FF7401C8EFC8088002C333D8FCFEE4F5C1
:0E071A00967596FFE5965E6002D322C322C359
:0107280022AE
:10082C00EFC394304003020909EFC39400401AEF60
:10083C00D3940750147401C8EFC8088002C333D88E
:10084C00FC55846002D322C322EFC39408401EEFF0
:10085C00D3940F5018EF24F8FE7401C8EEC808802A
:10086C0002C333D8FC55856002D322C322EFC39454
:10087C0010401EEFD394175018EF24F0FE7401C8EB
:10088C00EEC8088002C333D8FC55B06002D322C333
:10089C0022EFC39418401EEFD3941F5018EF24E896
:1008AC00FE7401C8EEC8088002C333D8FC55A060A2
:1008BC0002D322C322EFC39420401EEFD3942750BF
:1008CC0018EF24E0FE7401C8EEC8088002C333D8C8
:1008DC00FC55866002D322C322EFC39428401EEF3E
:1008EC00D3942F5018EF24D8FF7401C8EFC8088098
:0E08FC0002C333D8FC55966002D322C322C338
:01090A0022CA
:100ED600E4FBFA75BC40ED42BCEFC394004017EF4B
:100EE600D3940850118FBBC2EDC2EDD2EC30EDFDAC
:0C0EF600C2EDAABFABBECEEACECFEBCF60
:010F020022CC
:100D9D00E49001A3F0A3F075AB40ED42ABEFC3942B
:100DAD00004020EFD39407501A8FAC53AACF53AA0B
:100DBD00CF43AA10E5AA543060FA53AACF9001A4EC
:090DCD00E59CF09001A3A3E0FFF6
:010DD60022FA
:060ABE00CEEFCEC9EDC928
:100AC400E4FDFCEEC39400400EEED39408500812EB
:100AD4000BC7CFEECF8041EEB4090CE4FEFF7D01DD
:100AE400120BC77F008031EEB40A0D7E027F027DB7
:100AF40001120BC77F028020EEB40B0D7E047D0132
:100B04007F04120BC77F04800FEEB40C167E067DA3
:100B1400017F06120BC77F06CDE9CD120ED6CCEEAF
:100B2400CC801CEEC3940D401BEED394145015746A
:100B3400F32EFEFFCEE9CECDEECD120D9D7C00CD81
:0F0B4400EFCD80057EFF7FFF22CEECCECFEDCF31
:010B5300227F
:10000300EF14600D14601024027014E4F5EAF5FA9D
:1000130022E4F5EBF5FB22D2DEEDF5ECECF5FC2268
:1009E800C2AF75FFDE75FFAD75B1677DD07C07EDD1
:1009F8001D70011CED4C70F7E5B130E7FB75B208CE
:100A080075E5A975E49A75F5A975F49A438E40437E
:100A1800C904438E10438920758DFA858D8BD28E3B
:100A2800438780759850120F03120F2C43A401E4DA
:100A3800F5A5F5BDF5A7F5B575A0FF75B0FF7584EB
:100A4800FF7585FF7586FF7596FF75E10475E3C030
:100A580075E88075AA8075D10775BC4075ABFAF545
:100A6800D2F5D375D480F5D5F5D675D780900056D4
:100A7800F0A3F0A3F0A3F0A3F0A3F0FCFDED25E0B4
:100A8800FFEC33FE745C2FF58274003EF583E4F0CE
:100A9800A3F00DBD00010CED64304C70E0758130A1
:100AA800D2BCD2AC43E704D2AF120FEB75FFAD3026
:060AB80005FAC20580F6FC
:0300830002090B64
:0D090B00C0E0C0F0C083C082C0D075D0181D
:1009180053C97F75FFAD75FFFF900059E004F07073
:1009280006900058E004F0E4FCEC25E0245CF58235
:10093800E43400F583E0FEA3E0D39400EE94004095
:1009480068EC25E024BCF582E43400F583E475F016
:1009580001120CD9EC25E024BCF582E43400F583BF
:10096800E0FEA3E0D394E7EE9403403DEC25E024B9
:10097800BCF582E43400F583E4F0A3F0EC25E02430
:100988005CF582E43400F58374FFF5F0120CD9ECC1
:1009980025E0245CF582E43400F583E0FEA3E04E14
:1009A8007007CFECCFFD1207310CEC643060030206
:1009B8000931D3900059E094E7900058E09403403F
:1009C80014E4F0A3F090005BE004F0700690005A85
:0509D800E004F0D2056F
:0B09DD00D0D0D082D083D0F0D0E03228
:0300230002008652
:0D008600C0E0C0F0C083C082C0D075D010B3
:10009300C200C2AF20980302015EC298AF999000DC
:1000A30000E0FED394004033EE9410502EEFC3943F
:1000B300304006EFD39439400CEFC39441401CEF1A
:1000C300D394465016900000E0FE04F074032EF51E
:1000D30082E43400F583EFF002015EEFB43E1112C7
:1000E3000F03900003743EF09000007401F0806BE6
:1000F300EF640A7063900000E0FF7404C39F5058DC
:10010300EFC394105052EF24FEFF120D6A900002C9
:10011300EFF0900000E0FF04F074032FF582E43465
:1001230000F583740AF0900000E0A3F090019EE4D0
:10013300F07F01900001E024FDFEEFC39E50157493
:10014300032FF582E43400F583E0FE90019EE02E58
:10015300F00F80DFD2008003120F0330992CC29975
:1001630090002BE0FFC394105020742E2FF582E4EF
:100173003400F583E0601390002BE004F0742E2F1D
:10018300F582E43400F583E0F59920000302060DBF
:10019300C2007F01120D6A900025EFF07F03120D5C
:1001A3006A900026EFF090011CE0FF900025E06FBD
:1001B3006007EFF4600302060D900026E0120D02C3
:1001C30001F111026A1302B11402F215034B160373
:1001D300971703B21803E719042B20051921057893
:1001E3002205C22301EEBB0000060D0205BD9000EF
:1001F30001E0640E600302060D7F05120D6A120D05
:1002030063900028EFF07F09120D6A900029EFF048
:100213007F0B120D6A90002AEFF0900027E0FDC3D8
:1002230094305040900029E0FEED25E0245CF582F7
:10023300E43400F583EEF0A3E4F090002AE0FFED50
:1002430025E0245CF582E43400F583E48FF0120C9E
:10025300D9ED25E024BCF582E43400F583E4F0A372
:10026300F01207290205BD900001E0640A60030251
:10027300060D7F05120D6A120D63900029EFF0FD44
:10028300900027E0FF120ABE90019CEEF0A3EFF06E
:10029300900027E0FF900029E0FD120ABE90019C28
:1002A300EEF0A3EFF0120F2C120F030203279000BE
:1002B30001E06408600302060D7F05120D6A9000D9
:1002C30027EFF012061A90019E50057401F0800288
:1002D300E4F0120F2C90002E7423F090019E120C68
:1002E30049900031740AF090002C74040205709058
:1002F3000001E0640C600302060D7F05120D6A1213
:100303000D6390019CEFF07F09120D6A90019DEF40
:10031300F0900027E0FF90019CE0FCA3E0FD120FAA
:1003230055120F2C90019C120C4990019DE0FD7F0A
:1003330003120C4D900033740AF090002E7423F0D6
:1003430090002C7406020570900001E064066003BF
:1003530002060D120F2C90002E7423F0AD847F0142
:10036300120C4DAD857F03120C4DADB07F05120C01
:100373004DADA07F07120C4DAD867F09120C4DAD1C
:10038300967F0B120C4D90003B740AF090002C7476
:100393000E020570900001E06408600302060D7F01
:1003A30005120D6A90011CEFF0120FC70205BD90F4
:1003B3000001E0640E600302060D7F05120D6A90D2
:1003C300011D120D6690011EEFF07F09120D6A9058
:1003D300011FEFF07F0B120D6A900120EFF0120F57
:1003E300C70205BD900001E06406600302060D121A
:1003F3000F2C90002E7423F090011D120C499001D4
:100403001EE0FD7F03120C4D90011FE0FD7F0512DE
:100413000C4D900120E0FD7F07120C4D90003774C6
:100423000AF090002C020570900001E0640E600356
:1004330002060D90005AF0A3F07F05120D6A900199
:100443009F120D669001A0EFF07F09120D6A9001D3
:10045300A1EFF07F0B120D6A9001A2EFF0FB900069
:100463005AE4F0A3F090019FE0FFE4FCFDFE78184E
:10047300120CEF90005BE02FF090005AE03EF090FA
:1004830001A0E0FFE4FCFDFE7810120CEF90005B8E
:10049300E02FF090005AE03EF09001A1E0FFE4FC71
:1004A300FDFE7808120CEF90005BE02FF090005AED
:1004B300E03EF0EBFFA3E02FF090005AE03400F0B1
:1004C300E0FCA3E0FDCEECCE7818CEC313CE13D858
:1004D300F990019FF0EDCEECCE7810CEC313CE137E
:1004E300D8F9120C2F9001A0E0FD7F03120C4D9060
:1004F30001A1E0FD7F05120C4D9001A2E0FD7F07F5
:10050300120C4D900037740AF090002E7423F09073
:10051300002C740A805790005AE0FCA3E0FDCEEC57
:10052300CE7818CEC313CE13D8F990019FF0EDCE39
:10053300ECCE7810CEC313CE13D8F9120C2F900142
:10054300A0E0FD7F03120C4D9001A1E0FD7F051299
:100553000C4D9001A2E0FD7F07120C4D9000377403
:100563000AF090002E7423F090002C740AF090008F
:100573002BE402060A900001E0640A600302060D00
:100583007F05120D6A90019F120D669001A0EFF096
:1005930090019FE0241CF0E0FF741BC39F506BEF9E
:1005A300C394805065A3E0FF90019FE0241CF58273
:1005B300E43401F583EFF0120FC7120C87804B90E0
:1005C3000001E0640870437F05120D6A90019FEFFC
:1005D300F0E0241CF0E0FF741BC39F502DEFC39485
:1005E300805027120F2C90002E7423F090019FE06F
:1005F300241CF582E43401F583120C499000317414
:0C0603000AF090002C7404F0D299D2AFE1
:0B060F00D0D0D082D083D0F0D0E032F9
:03000000021019D2
:0C101900787FE4F6D8FD7581200209E81C
:100CD900C5F0F8A3E028F0C5F0F8E58215827002A6
:060CE9001583E038F02243
:100CEF00E8600FEFC333FFEE33FEED33FDEC33FC63
:030CFF00D8F12207
:100D0200D083D082F8E4937012740193700DA3A380
:100D120093F8740193F5828883E473740293686094
:060D2200EFA3A3A380DF94
:00000001FF
